{
  "contractName": "DigitalIdentity",
  "abi": [
    {
      "inputs": [
        {
          "internalType": "string",
          "name": "_ipfsHash",
          "type": "string"
        }
      ],
      "name": "storeUserData",
      "outputs": [],
      "stateMutability": "nonpayable",
      "type": "function"
    },
    {
      "inputs": [],
      "name": "getUserData",
      "outputs": [
        {
          "internalType": "string[]",
          "name": "",
          "type": "string[]"
        }
      ],
      "stateMutability": "view",
      "type": "function",
      "constant": true
    },
    {
      "inputs": [
        {
          "internalType": "string",
          "name": "_ipfsHash",
          "type": "string"
        }
      ],
      "name": "removeUserData",
      "outputs": [],
      "stateMutability": "nonpayable",
      "type": "function"
    },
    {
      "inputs": [
        {
          "internalType": "string",
          "name": "_oldIpfsHash",
          "type": "string"
        },
        {
          "internalType": "string",
          "name": "_newIpfsHash",
          "type": "string"
        }
      ],
      "name": "updateUserData",
      "outputs": [],
      "stateMutability": "nonpayable",
      "type": "function"
    }
  ],
  "bytecode": "0x608060405234801561001057600080fd5b5061174f806100206000396000f3fe608060405234801561001057600080fd5b506004361061004c5760003560e01c806322e8c87d1461005157806373a85fff1461006f578063c7ea29a11461008b578063d4628c7f146100a7575b600080fd5b6100596100c3565b6040516100669190611381565b60405180910390f35b61008960048036038101906100849190610fce565b61027f565b005b6100a560048036038101906100a0919061100f565b61061c565b005b6100c160048036038101906100bc9190610fce565b6108ec565b005b60603273ffffffffffffffffffffffffffffffffffffffff163373ffffffffffffffffffffffffffffffffffffffff16148061012a57503073ffffffffffffffffffffffffffffffffffffffff163373ffffffffffffffffffffffffffffffffffffffff16145b610169576040517f08c379a0000000000000000000000000000000000000000000000000000000008152600401610160906113c3565b60405180910390fd5b6000803373ffffffffffffffffffffffffffffffffffffffff1673ffffffffffffffffffffffffffffffffffffffff168152602001908152602001600020600001805480602002602001604051908101604052809291908181526020016000905b828210156102765783829060005260206000200180546101e990611600565b80601f016020809104026020016040519081016040528092919081815260200182805461021590611600565b80156102625780601f1061023757610100808354040283529160200191610262565b820191906000526020600020905b81548152906001019060200180831161024557829003601f168201915b5050505050815260200190600101906101ca565b50505050905090565b60008151116102c3576040517f08c379a00000000000000000000000000000000000000000000000000000000081526004016102ba90611403565b60405180910390fd5b6000803373ffffffffffffffffffffffffffffffffffffffff1673ffffffffffffffffffffffffffffffffffffffff168152602001908152602001600020600101816040516103129190611353565b908152602001604051809103902060009054906101000a900460ff1661036d576040517f08c379a0000000000000000000000000000000000000000000000000000000008152600401610364906113e3565b60405180910390fd5b600061037882610b17565b905060008190505b60016000803373ffffffffffffffffffffffffffffffffffffffff1673ffffffffffffffffffffffffffffffffffffffff168152602001908152602001600020600001805490506103d19190611580565b811015610515576000803373ffffffffffffffffffffffffffffffffffffffff1673ffffffffffffffffffffffffffffffffffffffff168152602001908152602001600020600001600182610426919061152a565b8154811061045d577f4e487b7100000000000000000000000000000000000000000000000000000000600052603260045260246000fd5b906000526020600020016000803373ffffffffffffffffffffffffffffffffffffffff1673ffffffffffffffffffffffffffffffffffffffff16815260200190815260200160002060000182815481106104e0577f4e487b7100000000000000000000000000000000000000000000000000000000600052603260045260246000fd5b906000526020600020019080546104f690611600565b610501929190610df6565b50808061050d90611632565b915050610380565b506000803373ffffffffffffffffffffffffffffffffffffffff1673ffffffffffffffffffffffffffffffffffffffff16815260200190815260200160002060000180548061058d577f4e487b7100000000000000000000000000000000000000000000000000000000600052603160045260246000fd5b6001900381819060005260206000200160006105a99190610e83565b90556000803373ffffffffffffffffffffffffffffffffffffffff1673ffffffffffffffffffffffffffffffffffffffff168152602001908152602001600020600101826040516105fa9190611353565b908152602001604051809103902060006101000a81549060ff02191690555050565b6000825111801561062e575060008151115b61066d576040517f08c379a000000000000000000000000000000000000000000000000000000000815260040161066490611403565b60405180910390fd5b61067681610c64565b6106b5576040517f08c379a00000000000000000000000000000000000000000000000000000000081526004016106ac906113a3565b60405180910390fd5b6000803373ffffffffffffffffffffffffffffffffffffffff1673ffffffffffffffffffffffffffffffffffffffff168152602001908152602001600020600101826040516107049190611353565b908152602001604051809103902060009054906101000a900460ff1661075f576040517f08c379a0000000000000000000000000000000000000000000000000000000008152600401610756906113e3565b60405180910390fd5b600061076a83610b17565b9050816000803373ffffffffffffffffffffffffffffffffffffffff1673ffffffffffffffffffffffffffffffffffffffff16815260200190815260200160002060000182815481106107e6577f4e487b7100000000000000000000000000000000000000000000000000000000600052603260045260246000fd5b906000526020600020019080519060200190610803929190610ec3565b5060016000803373ffffffffffffffffffffffffffffffffffffffff1673ffffffffffffffffffffffffffffffffffffffff168152602001908152602001600020600101836040516108559190611353565b908152602001604051809103902060006101000a81548160ff0219169083151502179055506000803373ffffffffffffffffffffffffffffffffffffffff1673ffffffffffffffffffffffffffffffffffffffff168152602001908152602001600020600101836040516108c99190611353565b908152602001604051809103902060006101000a81549060ff0219169055505050565b6000815111610930576040517f08c379a000000000000000000000000000000000000000000000000000000000815260040161092790611403565b60405180910390fd5b61093981610c64565b610978576040517f08c379a000000000000000000000000000000000000000000000000000000000815260040161096f906113a3565b60405180910390fd5b6000803373ffffffffffffffffffffffffffffffffffffffff1673ffffffffffffffffffffffffffffffffffffffff168152602001908152602001600020600101816040516109c79190611353565b908152602001604051809103902060009054906101000a900460ff1615610a23576040517f08c379a0000000000000000000000000000000000000000000000000000000008152600401610a1a90611423565b60405180910390fd5b6000803373ffffffffffffffffffffffffffffffffffffffff1673ffffffffffffffffffffffffffffffffffffffff16815260200190815260200160002060000181908060018154018082558091505060019003906000526020600020016000909190919091509080519060200190610a9d929190610ec3565b5060016000803373ffffffffffffffffffffffffffffffffffffffff1673ffffffffffffffffffffffffffffffffffffffff16815260200190815260200160002060010182604051610aef9190611353565b908152602001604051809103902060006101000a81548160ff02191690831515021790555050565b60008060005b6000803373ffffffffffffffffffffffffffffffffffffffff1673ffffffffffffffffffffffffffffffffffffffff16815260200190815260200160002060000180549050811015610c5a5783604051602001610b7a9190611353565b604051602081830303815290604052805190602001206000803373ffffffffffffffffffffffffffffffffffffffff1673ffffffffffffffffffffffffffffffffffffffff1681526020019081526020016000206000018281548110610c09577f4e487b7100000000000000000000000000000000000000000000000000000000600052603260045260246000fd5b90600052602060002001604051602001610c23919061136a565b604051602081830303815290604052805190602001201415610c4757809150610c5a565b8080610c5290611632565b915050610b1d565b5080915050919050565b600080829050602e815114610c7d576000915050610df1565b7f51000000000000000000000000000000000000000000000000000000000000007effffffffffffffffffffffffffffffffffffffffffffffffffffffffffffff191681600081518110610cfa577f4e487b7100000000000000000000000000000000000000000000000000000000600052603260045260246000fd5b602001015160f81c60f81b7effffffffffffffffffffffffffffffffffffffffffffffffffffffffffffff1916141580610ddc57507f6d000000000000000000000000000000000000000000000000000000000000007effffffffffffffffffffffffffffffffffffffffffffffffffffffffffffff191681600181518110610dac577f4e487b7100000000000000000000000000000000000000000000000000000000600052603260045260246000fd5b602001015160f81c60f81b7effffffffffffffffffffffffffffffffffffffffffffffffffffffffffffff191614155b15610deb576000915050610df1565b60019150505b919050565b828054610e0290611600565b90600052602060002090601f016020900481019282610e245760008555610e72565b82601f10610e355780548555610e72565b82800160010185558215610e7257600052602060002091601f016020900482015b82811115610e71578254825591600101919060010190610e56565b5b509050610e7f9190610f49565b5090565b508054610e8f90611600565b6000825580601f10610ea15750610ec0565b601f016020900490600052602060002090810190610ebf9190610f49565b5b50565b828054610ecf90611600565b90600052602060002090601f016020900481019282610ef15760008555610f38565b82601f10610f0a57805160ff1916838001178555610f38565b82800160010185558215610f38579182015b82811115610f37578251825591602001919060010190610f1c565b5b509050610f459190610f49565b5090565b5b80821115610f62576000816000905550600101610f4a565b5090565b6000610f79610f7484611474565b611443565b905082815260208101848484011115610f9157600080fd5b610f9c8482856115be565b509392505050565b600082601f830112610fb557600080fd5b8135610fc5848260208601610f66565b91505092915050565b600060208284031215610fe057600080fd5b600082013567ffffffffffffffff811115610ffa57600080fd5b61100684828501610fa4565b91505092915050565b6000806040838503121561102257600080fd5b600083013567ffffffffffffffff81111561103c57600080fd5b61104885828601610fa4565b925050602083013567ffffffffffffffff81111561106557600080fd5b61107185828601610fa4565b9150509250929050565b60006110878383611104565b905092915050565b600061109a826114c9565b6110a481856114ec565b9350836020820285016110b6856114a4565b8060005b858110156110f257848403895281516110d3858261107b565b94506110de836114df565b925060208a019950506001810190506110ba565b50829750879550505050505092915050565b600061110f826114d4565b61111981856114fd565b93506111298185602086016115cd565b61113281611708565b840191505092915050565b6000611148826114d4565b611152818561151f565b93506111628185602086016115cd565b80840191505092915050565b6000815461117b81611600565b611185818661151f565b945060018216600081146111a057600181146111b1576111e4565b60ff198316865281860193506111e4565b6111ba856114b4565b60005b838110156111dc578154818901526001820191506020810190506111bd565b838801955050505b50505092915050565b60006111fa60188361150e565b91507f496e76616c69642049504653206861736820666f726d617400000000000000006000830152602082019050919050565b600061123a60208361150e565b91507f4e6f7420617574686f72697a656420746f2076696577207573657220646174616000830152602082019050919050565b600061127a60218361150e565b91507f495046532068617368206e6f7420666f756e6420666f7220746869732075736560008301527f72000000000000000000000000000000000000000000000000000000000000006020830152604082019050919050565b60006112e060198361150e565b91507f4950465320686173682063616e6e6f7420626520656d707479000000000000006000830152602082019050919050565b600061132060208361150e565b91507f4950465320616c726561647920666f756e6420666f72207468697320757365726000830152602082019050919050565b600061135f828461113d565b915081905092915050565b6000611376828461116e565b915081905092915050565b6000602082019050818103600083015261139b818461108f565b905092915050565b600060208201905081810360008301526113bc816111ed565b9050919050565b600060208201905081810360008301526113dc8161122d565b9050919050565b600060208201905081810360008301526113fc8161126d565b9050919050565b6000602082019050818103600083015261141c816112d3565b9050919050565b6000602082019050818103600083015261143c81611313565b9050919050565b6000604051905081810181811067ffffffffffffffff8211171561146a576114696116d9565b5b8060405250919050565b600067ffffffffffffffff82111561148f5761148e6116d9565b5b601f19601f8301169050602081019050919050565b6000819050602082019050919050565b60008190508160005260206000209050919050565b600081519050919050565b600081519050919050565b6000602082019050919050565b600082825260208201905092915050565b600082825260208201905092915050565b600082825260208201905092915050565b600081905092915050565b6000611535826115b4565b9150611540836115b4565b9250827fffffffffffffffffffffffffffffffffffffffffffffffffffffffffffffffff038211156115755761157461167b565b5b828201905092915050565b600061158b826115b4565b9150611596836115b4565b9250828210156115a9576115a861167b565b5b828203905092915050565b6000819050919050565b82818337600083830152505050565b60005b838110156115eb5780820151818401526020810190506115d0565b838111156115fa576000848401525b50505050565b6000600282049050600182168061161857607f821691505b6020821081141561162c5761162b6116aa565b5b50919050565b600061163d826115b4565b91507fffffffffffffffffffffffffffffffffffffffffffffffffffffffffffffffff8214156116705761166f61167b565b5b600182019050919050565b7f4e487b7100000000000000000000000000000000000000000000000000000000600052601160045260246000fd5b7f4e487b7100000000000000000000000000000000000000000000000000000000600052602260045260246000fd5b7f4e487b7100000000000000000000000000000000000000000000000000000000600052604160045260246000fd5b6000601f19601f830116905091905056fea2646970667358221220858e2c7edd011dda376a3db3feb7bed0f278e61d368b944f9eb646223733966a64736f6c63430008000033",
  "immutableReferences": {},
  "source": "// SPDX-License-Identifier: GPL-3.0\r\npragma solidity ^0.8.0;\r\n\r\ncontract DigitalIdentity {\r\n    struct UserData {\r\n        string[] ipfsHashes;\r\n        mapping(string => bool) ipfsHashExists;\r\n    }\r\n\r\n    mapping(address => UserData) private userData;\r\n\r\n    function storeUserData(string memory _ipfsHash) public {\r\n        require(bytes(_ipfsHash).length > 0, \"IPFS hash cannot be empty\");\r\n        require(validateIPFSHash(_ipfsHash), \"Invalid IPFS hash format\");\r\n        require(\r\n            !userData[msg.sender].ipfsHashExists[_ipfsHash],\r\n            \"IPFS already found for this user\"\r\n        );\r\n        userData[msg.sender].ipfsHashes.push(_ipfsHash);\r\n        userData[msg.sender].ipfsHashExists[_ipfsHash] = true;\r\n    }\r\n\r\n    function getUserData() public view returns (string[] memory) {\r\n        require(\r\n            msg.sender == tx.origin || msg.sender == address(this),\r\n            \"Not authorized to view user data\"\r\n        );\r\n        return userData[msg.sender].ipfsHashes;\r\n    }\r\n\r\n    function validateIPFSHash(\r\n        string memory _ipfsHash\r\n    ) private pure returns (bool) {\r\n        bytes memory ipfsBytes = bytes(_ipfsHash);\r\n        if (ipfsBytes.length != 46) return false;\r\n        if (ipfsBytes[0] != bytes1(\"Q\") || ipfsBytes[1] != bytes1(\"m\"))\r\n            return false;\r\n        return true;\r\n    }\r\n\r\n    function removeUserData(string memory _ipfsHash) public {\r\n        require(bytes(_ipfsHash).length > 0, \"IPFS hash cannot be empty\");\r\n        require(\r\n            userData[msg.sender].ipfsHashExists[_ipfsHash],\r\n            \"IPFS hash not found for this user\"\r\n        );\r\n        uint256 index = getIndexOfUserData(_ipfsHash);\r\n        for (\r\n            uint256 i = index;\r\n            i < userData[msg.sender].ipfsHashes.length - 1;\r\n            i++\r\n        ) {\r\n            userData[msg.sender].ipfsHashes[i] = userData[msg.sender]\r\n                .ipfsHashes[i + 1];\r\n        }\r\n        userData[msg.sender].ipfsHashes.pop();\r\n        delete userData[msg.sender].ipfsHashExists[_ipfsHash];\r\n    }\r\n\r\n    function getIndexOfUserData(\r\n        string memory _ipfsHash\r\n    ) private view returns (uint256) {\r\n        uint256 index;\r\n        for (uint256 i = 0; i < userData[msg.sender].ipfsHashes.length; i++) {\r\n            if (\r\n                keccak256(\r\n                    abi.encodePacked(userData[msg.sender].ipfsHashes[i])\r\n                ) == keccak256(abi.encodePacked(_ipfsHash))\r\n            ) {\r\n                index = i;\r\n                break;\r\n            }\r\n        }\r\n        return index;\r\n    }\r\n\r\n    function updateUserData(\r\n        string memory _oldIpfsHash,\r\n        string memory _newIpfsHash\r\n    ) public {\r\n        require(\r\n            bytes(_oldIpfsHash).length > 0 && bytes(_newIpfsHash).length > 0,\r\n            \"IPFS hash cannot be empty\"\r\n        );\r\n        require(validateIPFSHash(_newIpfsHash), \"Invalid IPFS hash format\");\r\n        require(\r\n            userData[msg.sender].ipfsHashExists[_oldIpfsHash],\r\n            \"IPFS hash not found for this user\"\r\n        );\r\n        uint256 index = getIndexOfUserData(_oldIpfsHash);\r\n        userData[msg.sender].ipfsHashes[index] = _newIpfsHash;\r\n        userData[msg.sender].ipfsHashExists[_newIpfsHash] = true;\r\n        delete userData[msg.sender].ipfsHashExists[_oldIpfsHash];\r\n    }\r\n}\r\n",
  "sourcePath": "D:\\Desktop Backup\\Hackathons\\CodeSprint 7.0\\BuildSprint\\smart_contract\\contracts\\DigitalIdentity.sol",
  "compiler": {
    "name": "solc",
    "version": "0.8.0+commit.c7dfd78e.Emscripten.clang"
  },
  "schemaVersion": "3.4.13",
  "updatedAt": "2023-04-18T15:19:54.288Z",
  "networkType": "ethereum",
  "devdoc": {
    "kind": "dev",
    "methods": {},
    "version": 1
  },
  "userdoc": {
    "kind": "user",
    "methods": {},
    "version": 1
  }
}